{
  "contractName": "CrowdFund",
  "abi": [
    {
      "inputs": [
        {
          "name": "goal",
          "type": "uint256"
        },
        {
          "name": "price",
          "type": "uint256"
        }
      ],
      "payable": false,
      "stateMutability": "nonpayable",
      "type": "constructor"
    },
    {
      "anonymous": false,
      "inputs": [
        {
          "indexed": false,
          "name": "amountRaisedValue",
          "type": "uint256"
        }
      ],
      "name": "FundingGoalReached",
      "type": "event"
    },
    {
      "anonymous": false,
      "inputs": [],
      "name": "DepositComplete",
      "type": "event"
    },
    {
      "constant": false,
      "inputs": [],
      "name": "depositFunds",
      "outputs": [],
      "payable": true,
      "stateMutability": "payable",
      "type": "function"
    }
  ],
  "bytecode": "0x608060405234801561001057600080fd5b5060405160408061020b8339810180604052810190808051906020019092919080519060200190929190505050816000819055508060018190555050506101af8061005c6000396000f300608060405260043610610041576000357c0100000000000000000000000000000000000000000000000000000000900463ffffffff168063e2c41dbc14610046575b600080fd5b61004e610050565b005b6000600460009054906101000a900460ff1615151561006e57600080fd5b670de0b6b3a7640000600154023414151561008857600080fd5b34905080600360003373ffffffffffffffffffffffffffffffffffffffff1673ffffffffffffffffffffffffffffffffffffffff16815260200190815260200160002060008282540192505081905550806002600082825401925050819055507fa690d4c11b9b3f8dd3afdd58a8980ce5fad5c4992c26b12a03c76bccecac5c0560405160405180910390a1670de0b6b3a764000060005402600254101515610180576001600460006101000a81548160ff0219169083151502179055507fbdf8e8154212732e32053db049accdd4ff27639d7028ecf127e2353161b994bf6002546040518082815260200191505060405180910390a15b505600a165627a7a7230582048c2ec10f3ab2c5cc330f37f6adc1d566b80988e1b90af994739e1206f8ec77e0029",
  "source": "pragma solidity ^0.4.25;\n\ncontract CrowdFund {\n  uint fundGoal;\n  uint tokenPrice;\n  uint amountRaised;\n  mapping (address => uint256) balanceOfUsers;\n  bool depositClosed;\n\n  constructor(uint goal, uint price) public {\n    fundGoal = goal;\n    tokenPrice = price;\n  }\n\n  function depositFunds() payable public {\n    require(!depositClosed);\n    require(msg.value==tokenPrice * 1 ether);\n \n    uint amount = msg.value;\n    balanceOfUsers[msg.sender] += amount;\n    amountRaised += amount;\n\n    emit DepositComplete();\n    if(amountRaised >= fundGoal * 1 ether){\n      depositClosed = true;\n      emit FundingGoalReached(amountRaised);\n    }\n  }\n\n  event FundingGoalReached(uint amountRaisedValue);\n  event DepositComplete();\n\n}\n",
  "sourcePath": "C:/dev/vue2_test/back/contracts/CrowdFund.sol",
  "compiler": {
    "name": "solc",
    "version": "0.4.25+commit.59dbf8f1.Emscripten.clang"
  },
  "schemaVersion": "3.4.1",
  "updatedAt": "2021-08-21T17:23:32.663Z",
  "networkType": "ethereum",
  "devdoc": {
    "methods": {}
  },
  "userdoc": {
    "methods": {}
  }
}