{
  "contractName": "Hello",
  "abi": [
    {
      "inputs": [],
      "payable": false,
      "stateMutability": "nonpayable",
      "type": "constructor"
    },
    {
      "constant": true,
      "inputs": [],
      "name": "owner",
      "outputs": [
        {
          "internalType": "address",
          "name": "",
          "type": "address"
        }
      ],
      "payable": false,
      "stateMutability": "view",
      "type": "function"
    },
    {
      "constant": true,
      "inputs": [],
      "name": "getSomeValue",
      "outputs": [
        {
          "internalType": "uint256",
          "name": "value",
          "type": "uint256"
        }
      ],
      "payable": false,
      "stateMutability": "pure",
      "type": "function"
    },
    {
      "constant": true,
      "inputs": [],
      "name": "whoIsOwner",
      "outputs": [
        {
          "internalType": "address",
          "name": "",
          "type": "address"
        }
      ],
      "payable": false,
      "stateMutability": "view",
      "type": "function"
    },
    {
      "constant": true,
      "inputs": [],
      "name": "helloWorld",
      "outputs": [
        {
          "internalType": "string",
          "name": "",
          "type": "string"
        }
      ],
      "payable": false,
      "stateMutability": "view",
      "type": "function"
    }
  ],
  "bytecode": "0x608060405234801561001057600080fd5b50336000806101000a81548173ffffffffffffffffffffffffffffffffffffffff021916908373ffffffffffffffffffffffffffffffffffffffff16021790555061024f806100606000396000f3fe608060405234801561001057600080fd5b506004361061004c5760003560e01c80638da5cb5b146100515780639ee1bd0f1461009b578063a40674b7146100e5578063c605f76c14610103575b600080fd5b610059610186565b604051808273ffffffffffffffffffffffffffffffffffffffff1673ffffffffffffffffffffffffffffffffffffffff16815260200191505060405180910390f35b6100a36101ab565b604051808273ffffffffffffffffffffffffffffffffffffffff1673ffffffffffffffffffffffffffffffffffffffff16815260200191505060405180910390f35b6100ed6101d4565b6040518082815260200191505060405180910390f35b61010b6101dd565b6040518080602001828103825283818151815260200191508051906020019080838360005b8381101561014b578082015181840152602081019050610130565b50505050905090810190601f1680156101785780820380516001836020036101000a031916815260200191505b509250505060405180910390f35b6000809054906101000a900473ffffffffffffffffffffffffffffffffffffffff1681565b60008060009054906101000a900473ffffffffffffffffffffffffffffffffffffffff16905090565b60006005905090565b60606040518060400160405280600c81526020017f48656c6c6f20576f726c6421000000000000000000000000000000000000000081525090509056fea265627a7a723158203136ea055d23e512e718eb3fb4dda100e0b0f44e9f68c2be555b91a8928855dc64736f6c63430005100032",
  "source": "pragma solidity >=0.4.21 <0.7.0; \r\n\r\ncontract Hello { \r\n\taddress public owner; // public 으로 선언하여 자동 getter 생성 \r\n    \r\n    constructor() public { \r\n    \towner = msg.sender; \r\n    } \r\n    \r\n    function getSomeValue() public pure returns (uint256 value){ \r\n    \treturn 5; \r\n    } \r\n\r\n    function whoIsOwner() public view returns (address){\r\n        return owner;\r\n    }\r\n\r\n    function helloWorld() public view returns (string memory){\r\n        return \"Hello World!\";\r\n    }\r\n}",
  "sourcePath": "C:/dev/vue2_test/back/contracts/Hello.sol",
  "compiler": {
    "name": "solc",
    "version": "0.5.16+commit.9c3226ce.Emscripten.clang"
  },
  "schemaVersion": "3.4.1",
  "updatedAt": "2021-08-27T07:43:48.469Z",
  "networkType": "ethereum",
  "devdoc": {
    "methods": {}
  },
  "userdoc": {
    "methods": {}
  }
}