{
  "contractName": "Hello",
  "abi": [
    {
      "inputs": [
        {
          "internalType": "bytes32[]",
          "name": "options",
          "type": "bytes32[]"
        }
      ],
      "payable": false,
      "stateMutability": "nonpayable",
      "type": "constructor"
    },
    {
      "constant": true,
      "inputs": [
        {
          "internalType": "uint256",
          "name": "",
          "type": "uint256"
        }
      ],
      "name": "optionList",
      "outputs": [
        {
          "internalType": "bytes32",
          "name": "",
          "type": "bytes32"
        }
      ],
      "payable": false,
      "stateMutability": "view",
      "type": "function"
    },
    {
      "constant": true,
      "inputs": [],
      "name": "owner",
      "outputs": [
        {
          "internalType": "address",
          "name": "",
          "type": "address"
        }
      ],
      "payable": false,
      "stateMutability": "view",
      "type": "function"
    },
    {
      "constant": true,
      "inputs": [
        {
          "internalType": "address",
          "name": "",
          "type": "address"
        }
      ],
      "name": "uservotes",
      "outputs": [
        {
          "internalType": "bytes32",
          "name": "",
          "type": "bytes32"
        }
      ],
      "payable": false,
      "stateMutability": "view",
      "type": "function"
    },
    {
      "constant": true,
      "inputs": [
        {
          "internalType": "bytes32",
          "name": "",
          "type": "bytes32"
        }
      ],
      "name": "votes",
      "outputs": [
        {
          "internalType": "uint8",
          "name": "",
          "type": "uint8"
        }
      ],
      "payable": false,
      "stateMutability": "view",
      "type": "function"
    },
    {
      "constant": false,
      "inputs": [
        {
          "internalType": "bytes32",
          "name": "option",
          "type": "bytes32"
        }
      ],
      "name": "voting",
      "outputs": [],
      "payable": false,
      "stateMutability": "nonpayable",
      "type": "function"
    },
    {
      "constant": true,
      "inputs": [
        {
          "internalType": "bytes32",
          "name": "option",
          "type": "bytes32"
        }
      ],
      "name": "totalVotesFor",
      "outputs": [
        {
          "internalType": "uint8",
          "name": "",
          "type": "uint8"
        }
      ],
      "payable": false,
      "stateMutability": "view",
      "type": "function"
    },
    {
      "constant": true,
      "inputs": [
        {
          "internalType": "bytes32",
          "name": "option",
          "type": "bytes32"
        }
      ],
      "name": "validOption",
      "outputs": [
        {
          "internalType": "bool",
          "name": "",
          "type": "bool"
        }
      ],
      "payable": false,
      "stateMutability": "view",
      "type": "function"
    },
    {
      "constant": true,
      "inputs": [],
      "name": "getOptionList",
      "outputs": [
        {
          "internalType": "bytes32[]",
          "name": "options",
          "type": "bytes32[]"
        }
      ],
      "payable": false,
      "stateMutability": "view",
      "type": "function"
    },
    {
      "constant": true,
      "inputs": [],
      "name": "getSomeValue",
      "outputs": [
        {
          "internalType": "uint256",
          "name": "value",
          "type": "uint256"
        }
      ],
      "payable": false,
      "stateMutability": "pure",
      "type": "function"
    },
    {
      "constant": true,
      "inputs": [],
      "name": "whoIsOwner",
      "outputs": [
        {
          "internalType": "address",
          "name": "",
          "type": "address"
        }
      ],
      "payable": false,
      "stateMutability": "view",
      "type": "function"
    },
    {
      "constant": true,
      "inputs": [],
      "name": "helloWorld",
      "outputs": [
        {
          "internalType": "string",
          "name": "",
          "type": "string"
        }
      ],
      "payable": false,
      "stateMutability": "view",
      "type": "function"
    }
  ],
  "bytecode": "0x608060405234801561001057600080fd5b506040516108663803806108668339818101604052602081101561003357600080fd5b810190808051604051939291908464010000000082111561005357600080fd5b8382019150602082018581111561006957600080fd5b825186602082028301116401000000008211171561008657600080fd5b8083526020830192505050908051906020019060200280838360005b838110156100bd5780820151818401526020810190506100a2565b50505050905001604052505050336000806101000a81548173ffffffffffffffffffffffffffffffffffffffff021916908373ffffffffffffffffffffffffffffffffffffffff1602179055508060019080519060200190610120929190610127565b5050610199565b828054828255906000526020600020908101928215610163579160200282015b82811115610162578251825591602001919060010190610147565b5b5090506101709190610174565b5090565b61019691905b8082111561019257600081600090555060010161017a565b5090565b90565b6106be806101a86000396000f3fe608060405234801561001057600080fd5b50600436106100a95760003560e01c80638da5cb5b116100715780638da5cb5b1461021e5780639ee1bd0f14610268578063a40674b7146102b2578063c198a539146102d0578063c605f76c1461032f578063e0e7365c146103b2576100a9565b80630553848c146100ae57806327af4006146100f45780632b38cd961461014c5780632f265cf714610194578063573489a9146101dc575b600080fd5b6100da600480360360208110156100c457600080fd5b81019080803590602001909291905050506103e0565b604051808215151515815260200191505060405180910390f35b6101366004803603602081101561010a57600080fd5b81019080803573ffffffffffffffffffffffffffffffffffffffff169060200190929190505050610436565b6040518082815260200191505060405180910390f35b6101786004803603602081101561016257600080fd5b810190808035906020019092919050505061044e565b604051808260ff1660ff16815260200191505060405180910390f35b6101c0600480360360208110156101aa57600080fd5b810190808035906020019092919050505061046e565b604051808260ff1660ff16815260200191505060405180910390f35b610208600480360360208110156101f257600080fd5b81019080803590602001909291905050506104aa565b6040518082815260200191505060405180910390f35b6102266104cb565b604051808273ffffffffffffffffffffffffffffffffffffffff1673ffffffffffffffffffffffffffffffffffffffff16815260200191505060405180910390f35b6102706104f0565b604051808273ffffffffffffffffffffffffffffffffffffffff1673ffffffffffffffffffffffffffffffffffffffff16815260200191505060405180910390f35b6102ba610519565b6040518082815260200191505060405180910390f35b6102d8610522565b6040518080602001828103825283818151815260200191508051906020019060200280838360005b8381101561031b578082015181840152602081019050610300565b505050509050019250505060405180910390f35b61033761057a565b6040518080602001828103825283818151815260200191508051906020019080838360005b8381101561037757808201518184015260208101905061035c565b50505050905090810190601f1680156103a45780820380516001836020036101000a031916815260200191505b509250505060405180910390f35b6103de600480360360208110156103c857600080fd5b81019080803590602001909291905050506105b7565b005b600080600090505b60018054905081101561042b57826001828154811061040357fe5b9060005260206000200154141561041e576001915050610431565b80806001019150506103e8565b50600090505b919050565b60026020528060005260406000206000915090505481565b60036020528060005260406000206000915054906101000a900460ff1681565b6000610479826103e0565b61048257600080fd5b6003600083815260200190815260200160002060009054906101000a900460ff169050919050565b600181815481106104b757fe5b906000526020600020016000915090505481565b6000809054906101000a900473ffffffffffffffffffffffffffffffffffffffff1681565b60008060009054906101000a900473ffffffffffffffffffffffffffffffffffffffff16905090565b60006005905090565b6060600180548060200260200160405190810160405280929190818152602001828054801561057057602002820191906000526020600020905b81548152602001906001019080831161055c575b5050505050905090565b60606040518060400160405280600c81526020017f48656c6c6f20576f726c64210000000000000000000000000000000000000000815250905090565b6000600260003373ffffffffffffffffffffffffffffffffffffffff1673ffffffffffffffffffffffffffffffffffffffff168152602001908152602001600020541461060357600080fd5b80600260003373ffffffffffffffffffffffffffffffffffffffff1673ffffffffffffffffffffffffffffffffffffffff1681526020019081526020016000208190555060016003600083815260200190815260200160002060008282829054906101000a900460ff160192506101000a81548160ff021916908360ff1602179055505056fea265627a7a723158208161bc663240206bbbc9cf23cd933114503f475b02f4bd86defbad7c872f8e4764736f6c63430005100032",
  "source": "pragma solidity >=0.4.21 <0.7.0; \r\n\r\ncontract Hello { \r\n\taddress public owner; // public 으로 선언하여 자동 getter 생성 \r\n    \r\n    bytes32[] public optionList;\r\n    mapping (address => bytes32) public uservotes;\r\n    mapping (bytes32 => uint8) public votes;\r\n\r\n    constructor(bytes32[] memory options) public { \r\n        owner = msg.sender; \r\n        optionList = options;\r\n    }\r\n    \r\n    function voting(bytes32 option) public {\r\n        require(uservotes[msg.sender]=='');\r\n        uservotes[msg.sender] = option;\r\n        votes[option] += 1;\r\n\r\n\r\n    }\r\n\r\n    function totalVotesFor(bytes32 option) view public returns (uint8) {\r\n        require(validOption(option));\r\n        return votes[option];\r\n    }\r\n\r\n    function validOption(bytes32 option) view public returns (bool) {\r\n        for(uint i = 0; i < optionList.length; i++) {\r\n            if (optionList[i] == option) {\r\n                return true;\r\n            }\r\n        }\r\n\r\n        return false;\r\n    }\r\n\r\n    function getOptionList() public view returns(bytes32[] memory options) {\r\n        return optionList;\r\n    }\r\n    \r\n\r\n    // 아래는 테스트용 함수들 이다\r\n    function getSomeValue() public pure returns (uint256 value){ \r\n    \treturn 5; \r\n    } \r\n\r\n    function whoIsOwner() public view returns (address){\r\n        return owner;\r\n    }\r\n\r\n    function helloWorld() public view returns (string memory){\r\n        return \"Hello World!\";\r\n    }\r\n}",
  "sourcePath": "C:/dev/vue2_test/back/contracts/Hello.sol",
  "compiler": {
    "name": "solc",
    "version": "0.5.16+commit.9c3226ce.Emscripten.clang"
  },
  "schemaVersion": "3.4.1",
  "updatedAt": "2021-08-28T18:08:34.083Z",
  "networkType": "ethereum",
  "devdoc": {
    "methods": {}
  },
  "userdoc": {
    "methods": {}
  }
}