{
  "contractName": "Hello",
  "abi": [
    {
      "inputs": [
        {
          "internalType": "string[]",
          "name": "options",
          "type": "string[]"
        }
      ],
      "payable": false,
      "stateMutability": "nonpayable",
      "type": "constructor"
    },
    {
      "constant": true,
      "inputs": [
        {
          "internalType": "uint256",
          "name": "",
          "type": "uint256"
        }
      ],
      "name": "optionList",
      "outputs": [
        {
          "internalType": "string",
          "name": "",
          "type": "string"
        }
      ],
      "payable": false,
      "stateMutability": "view",
      "type": "function"
    },
    {
      "constant": true,
      "inputs": [],
      "name": "owner",
      "outputs": [
        {
          "internalType": "address",
          "name": "",
          "type": "address"
        }
      ],
      "payable": false,
      "stateMutability": "view",
      "type": "function"
    },
    {
      "constant": true,
      "inputs": [
        {
          "internalType": "address",
          "name": "",
          "type": "address"
        }
      ],
      "name": "uservotes",
      "outputs": [
        {
          "internalType": "string",
          "name": "",
          "type": "string"
        }
      ],
      "payable": false,
      "stateMutability": "view",
      "type": "function"
    },
    {
      "constant": true,
      "inputs": [
        {
          "internalType": "address",
          "name": "",
          "type": "address"
        }
      ],
      "name": "vote_or_not",
      "outputs": [
        {
          "internalType": "uint8",
          "name": "",
          "type": "uint8"
        }
      ],
      "payable": false,
      "stateMutability": "view",
      "type": "function"
    },
    {
      "constant": true,
      "inputs": [
        {
          "internalType": "string",
          "name": "",
          "type": "string"
        }
      ],
      "name": "votes",
      "outputs": [
        {
          "internalType": "uint8",
          "name": "",
          "type": "uint8"
        }
      ],
      "payable": false,
      "stateMutability": "view",
      "type": "function"
    },
    {
      "constant": false,
      "inputs": [
        {
          "internalType": "string",
          "name": "option",
          "type": "string"
        }
      ],
      "name": "voting",
      "outputs": [],
      "payable": false,
      "stateMutability": "nonpayable",
      "type": "function"
    },
    {
      "constant": true,
      "inputs": [
        {
          "internalType": "string",
          "name": "option",
          "type": "string"
        }
      ],
      "name": "totalVotesFor",
      "outputs": [
        {
          "internalType": "uint8",
          "name": "",
          "type": "uint8"
        }
      ],
      "payable": false,
      "stateMutability": "view",
      "type": "function"
    },
    {
      "constant": true,
      "inputs": [
        {
          "internalType": "string",
          "name": "option",
          "type": "string"
        }
      ],
      "name": "validOption",
      "outputs": [
        {
          "internalType": "bool",
          "name": "",
          "type": "bool"
        }
      ],
      "payable": false,
      "stateMutability": "view",
      "type": "function"
    },
    {
      "constant": true,
      "inputs": [],
      "name": "getOptionList",
      "outputs": [
        {
          "internalType": "string[]",
          "name": "options",
          "type": "string[]"
        }
      ],
      "payable": false,
      "stateMutability": "view",
      "type": "function"
    },
    {
      "constant": true,
      "inputs": [
        {
          "internalType": "address",
          "name": "user",
          "type": "address"
        }
      ],
      "name": "isVoted",
      "outputs": [
        {
          "internalType": "bool",
          "name": "",
          "type": "bool"
        }
      ],
      "payable": false,
      "stateMutability": "view",
      "type": "function"
    },
    {
      "constant": true,
      "inputs": [],
      "name": "getSomeValue",
      "outputs": [
        {
          "internalType": "uint256",
          "name": "value",
          "type": "uint256"
        }
      ],
      "payable": false,
      "stateMutability": "pure",
      "type": "function"
    },
    {
      "constant": true,
      "inputs": [],
      "name": "whoIsOwner",
      "outputs": [
        {
          "internalType": "address",
          "name": "",
          "type": "address"
        }
      ],
      "payable": false,
      "stateMutability": "view",
      "type": "function"
    },
    {
      "constant": true,
      "inputs": [],
      "name": "helloWorld",
      "outputs": [
        {
          "internalType": "string",
          "name": "",
          "type": "string"
        }
      ],
      "payable": false,
      "stateMutability": "view",
      "type": "function"
    }
  ],
  "bytecode": "0x60806040523480156200001157600080fd5b506040516200141c3803806200141c833981810160405262000037919081019062000303565b336000806101000a81548173ffffffffffffffffffffffffffffffffffffffff021916908373ffffffffffffffffffffffffffffffffffffffff16021790555080600190805190602001906200008f92919062000097565b505062000402565b828054828255906000526020600020908101928215620000eb579160200282015b82811115620000ea578251829080519060200190620000d9929190620000fe565b5091602001919060010190620000b8565b5b509050620000fa919062000185565b5090565b828054600181600116156101000203166002900490600052602060002090601f016020900481019282601f106200014157805160ff191683800117855562000172565b8280016001018555821562000172579182015b828111156200017157825182559160200191906001019062000154565b5b509050620001819190620001b6565b5090565b620001b391905b80821115620001af5760008181620001a59190620001de565b506001016200018c565b5090565b90565b620001db91905b80821115620001d7576000816000905550600101620001bd565b5090565b90565b50805460018160011615610100020316600290046000825580601f1062000206575062000227565b601f016020900490600052602060002090810190620002269190620001b6565b5b50565b600082601f8301126200023c57600080fd5b8151620002536200024d8262000376565b62000348565b9150818183526020840193506020810190508360005b838110156200029d5781518601620002828882620002a7565b84526020840193506020830192505060018101905062000269565b5050505092915050565b600082601f830112620002b957600080fd5b8151620002d0620002ca826200039f565b62000348565b91508082526020830160208301858383011115620002ed57600080fd5b620002fa838284620003cc565b50505092915050565b6000602082840312156200031657600080fd5b600082015167ffffffffffffffff8111156200033157600080fd5b6200033f848285016200022a565b91505092915050565b6000604051905081810181811067ffffffffffffffff821117156200036c57600080fd5b8060405250919050565b600067ffffffffffffffff8211156200038e57600080fd5b602082029050602081019050919050565b600067ffffffffffffffff821115620003b757600080fd5b601f19601f8301169050602081019050919050565b60005b83811015620003ec578082015181840152602081019050620003cf565b83811115620003fc576000848401525b50505050565b61100a80620004126000396000f3fe608060405234801561001057600080fd5b50600436106100cf5760003560e01c80639ee1bd0f1161008c578063c198a53911610066578063c198a5391461024e578063c605f76c1461026c578063cbff75cb1461028a578063e3393a6d146102ba576100cf565b80639ee1bd0f146101e2578063a40674b714610200578063b99ef1fa1461021e576100cf565b806327af4006146100d4578063445efc01146101045780634a3bf37714610134578063573489a9146101645780636a2743c7146101945780638da5cb5b146101c4575b600080fd5b6100ee60048036036100e991908101906109d8565b6102d6565b6040516100fb9190610d61565b60405180910390f35b61011e600480360361011991908101906109d8565b610386565b60405161012b9190610dc0565b60405180910390f35b61014e60048036036101499190810190610a42565b6103a6565b60405161015b9190610dc0565b60405180910390f35b61017e60048036036101799190810190610a83565b6103ed565b60405161018b9190610d61565b60405180910390f35b6101ae60048036036101a99190810190610a42565b6104a6565b6040516101bb9190610d46565b60405180910390f35b6101cc610547565b6040516101d99190610d09565b60405180910390f35b6101ea61056c565b6040516101f79190610d09565b60405180910390f35b610208610595565b6040516102159190610da5565b60405180910390f35b61023860048036036102339190810190610a01565b61059e565b6040516102459190610dc0565b60405180910390f35b6102566105d4565b6040516102639190610d24565b60405180910390f35b6102746106bd565b6040516102819190610d83565b60405180910390f35b6102a4600480360361029f91908101906109d8565b6106fa565b6040516102b19190610d46565b60405180910390f35b6102d460048036036102cf9190810190610a42565b610767565b005b60026020528060005260406000206000915090508054600181600116156101000203166002900480601f01602080910402602001604051908101604052809291908181526020018280546001816001161561010002031660029004801561037e5780601f106103535761010080835404028352916020019161037e565b820191906000526020600020905b81548152906001019060200180831161036157829003601f168201915b505050505081565b60046020528060005260406000206000915054906101000a900460ff1681565b60006103b1826104a6565b6103ba57600080fd5b6003826040516103ca9190610cdb565b908152602001604051809103902060009054906101000a900460ff169050919050565b600181815481106103fa57fe5b906000526020600020016000915090508054600181600116156101000203166002900480601f01602080910402602001604051908101604052809291908181526020018280546001816001161561010002031660029004801561049e5780601f106104735761010080835404028352916020019161049e565b820191906000526020600020905b81548152906001019060200180831161048157829003601f168201915b505050505081565b600080600090505b60018054905081101561053c57826040516020016104cc9190610cdb565b60405160208183030381529060405280519060200120600182815481106104ef57fe5b906000526020600020016040516020016105099190610cf2565b60405160208183030381529060405280519060200120141561052f576001915050610542565b80806001019150506104ae565b50600090505b919050565b6000809054906101000a900473ffffffffffffffffffffffffffffffffffffffff1681565b60008060009054906101000a900473ffffffffffffffffffffffffffffffffffffffff16905090565b60006005905090565b6003818051602081018201805184825260208301602085012081835280955050505050506000915054906101000a900460ff1681565b60606001805480602002602001604051908101604052809291908181526020016000905b828210156106b4578382906000526020600020018054600181600116156101000203166002900480601f0160208091040260200160405190810160405280929190818152602001828054600181600116156101000203166002900480156106a05780601f10610675576101008083540402835291602001916106a0565b820191906000526020600020905b81548152906001019060200180831161068357829003601f168201915b5050505050815260200190600101906105f8565b50505050905090565b60606040518060400160405280600c81526020017f48656c6c6f20576f726c64210000000000000000000000000000000000000000815250905090565b60006001600460008473ffffffffffffffffffffffffffffffffffffffff1673ffffffffffffffffffffffffffffffffffffffff16815260200190815260200160002060009054906101000a900460ff1660ff16141561075d5760019050610762565b600090505b919050565b80600260003373ffffffffffffffffffffffffffffffffffffffff1673ffffffffffffffffffffffffffffffffffffffff16815260200190815260200160002090805190602001906107ba929190610861565b5060016003826040516107cd9190610cdb565b908152602001604051809103902060008282829054906101000a900460ff160192506101000a81548160ff021916908360ff1602179055506001600460003373ffffffffffffffffffffffffffffffffffffffff1673ffffffffffffffffffffffffffffffffffffffff16815260200190815260200160002060006101000a81548160ff021916908360ff16021790555050565b828054600181600116156101000203166002900490600052602060002090601f016020900481019282601f106108a257805160ff19168380011785556108d0565b828001600101855582156108d0579182015b828111156108cf5782518255916020019190600101906108b4565b5b5090506108dd91906108e1565b5090565b61090391905b808211156108ff5760008160009055506001016108e7565b5090565b90565b60008135905061091581610f99565b92915050565b600082601f83011261092c57600080fd5b813561093f61093a82610e08565b610ddb565b9150808252602083016020830185838301111561095b57600080fd5b610966838284610f46565b50505092915050565b600082601f83011261098057600080fd5b813561099361098e82610e34565b610ddb565b915080825260208301602083018583830111156109af57600080fd5b6109ba838284610f46565b50505092915050565b6000813590506109d281610fb0565b92915050565b6000602082840312156109ea57600080fd5b60006109f884828501610906565b91505092915050565b600060208284031215610a1357600080fd5b600082013567ffffffffffffffff811115610a2d57600080fd5b610a398482850161091b565b91505092915050565b600060208284031215610a5457600080fd5b600082013567ffffffffffffffff811115610a6e57600080fd5b610a7a8482850161096f565b91505092915050565b600060208284031215610a9557600080fd5b6000610aa3848285016109c3565b91505092915050565b6000610ab88383610bbd565b905092915050565b610ac981610ef1565b82525050565b6000610ada82610e85565b610ae48185610eb3565b935083602082028501610af685610e60565b8060005b85811015610b325784840389528151610b138582610aac565b9450610b1e83610ea6565b925060208a01995050600181019050610afa565b50829750879550505050505092915050565b610b4d81610f03565b82525050565b6000610b5e82610e9b565b610b688185610ed5565b9350610b78818560208601610f55565b610b8181610f88565b840191505092915050565b6000610b9782610e9b565b610ba18185610ee6565b9350610bb1818560208601610f55565b80840191505092915050565b6000610bc882610e90565b610bd28185610ec4565b9350610be2818560208601610f55565b610beb81610f88565b840191505092915050565b6000610c0182610e90565b610c0b8185610ed5565b9350610c1b818560208601610f55565b610c2481610f88565b840191505092915050565b600081546001811660008114610c4c5760018114610c7157610cb5565b607f6002830416610c5d8187610ee6565b955060ff1983168652808601935050610cb5565b60028204610c7f8187610ee6565b9550610c8a85610e70565b60005b82811015610cac57815481890152600182019150602081019050610c8d565b82880195505050505b505092915050565b610cc681610f2f565b82525050565b610cd581610f39565b82525050565b6000610ce78284610b8c565b915081905092915050565b6000610cfe8284610c2f565b915081905092915050565b6000602082019050610d1e6000830184610ac0565b92915050565b60006020820190508181036000830152610d3e8184610acf565b905092915050565b6000602082019050610d5b6000830184610b44565b92915050565b60006020820190508181036000830152610d7b8184610bf6565b905092915050565b60006020820190508181036000830152610d9d8184610b53565b905092915050565b6000602082019050610dba6000830184610cbd565b92915050565b6000602082019050610dd56000830184610ccc565b92915050565b6000604051905081810181811067ffffffffffffffff82111715610dfe57600080fd5b8060405250919050565b600067ffffffffffffffff821115610e1f57600080fd5b601f19601f8301169050602081019050919050565b600067ffffffffffffffff821115610e4b57600080fd5b601f19601f8301169050602081019050919050565b6000819050602082019050919050565b60008190508160005260206000209050919050565b600081519050919050565b600081519050919050565b600081519050919050565b6000602082019050919050565b600082825260208201905092915050565b600082825260208201905092915050565b600082825260208201905092915050565b600081905092915050565b6000610efc82610f0f565b9050919050565b60008115159050919050565b600073ffffffffffffffffffffffffffffffffffffffff82169050919050565b6000819050919050565b600060ff82169050919050565b82818337600083830152505050565b60005b83811015610f73578082015181840152602081019050610f58565b83811115610f82576000848401525b50505050565b6000601f19601f8301169050919050565b610fa281610ef1565b8114610fad57600080fd5b50565b610fb981610f2f565b8114610fc457600080fd5b5056fea365627a7a72315820295dab61d7f4ce6a11d9f5f87fa0d9491d6900acc9368591e2ae1ae69ffb67896c6578706572696d656e74616cf564736f6c63430005100040",
  "source": "pragma solidity >=0.4.21 <0.7.0;\r\npragma experimental ABIEncoderV2;\r\n\r\ncontract Hello { \r\n\taddress public owner; // public 으로 선언하여 자동 getter 생성 \r\n    \r\n    string[] public optionList;\r\n    mapping (address => string) public uservotes;\r\n    mapping (string => uint8) public votes;\r\n    mapping (address => uint8) public vote_or_not;\r\n\r\n    constructor(string[] memory options) public { \r\n        owner = msg.sender; \r\n        optionList = options;\r\n    }\r\n    \r\n    function voting(string memory option) public {\r\n        //require(uservotes[msg.sender]=='');\r\n        uservotes[msg.sender] = option;\r\n        votes[option] += 1;\r\n        vote_or_not[msg.sender] = 1;\r\n    }\r\n\r\n    function totalVotesFor(string memory option) view public returns (uint8) {\r\n        require(validOption(option));\r\n        return votes[option];\r\n    }\r\n\r\n    function validOption(string memory option) view public returns (bool) {\r\n        for(uint i = 0; i < optionList.length; i++) {\r\n            /*\r\n            if (optionList[i] == option) {\r\n                return true;\r\n            }\r\n            */\r\n            if (keccak256(abi.encodePacked(optionList[i])) == keccak256(abi.encodePacked(option))) {\r\n                return true;\r\n            }\r\n        }\r\n        return false;\r\n    }\r\n\r\n    function getOptionList() public view returns(string[] memory options) {\r\n        return optionList;\r\n    }\r\n    \r\n    function isVoted(address user) public view returns (bool) {\r\n        if(vote_or_not[user] == 1){\r\n            return true;\r\n        } else {\r\n            return false;\r\n        }\r\n    }\r\n\r\n    // 아래는 테스트용 함수들 이다\r\n    function getSomeValue() public pure returns (uint256 value){ \r\n    \treturn 5; \r\n    } \r\n\r\n    function whoIsOwner() public view returns (address){\r\n        return owner;\r\n    }\r\n\r\n    function helloWorld() public view returns (string memory){\r\n        return \"Hello World!\";\r\n    }\r\n}",
  "sourcePath": "C:/dev/vue2_test/back/contracts/Hello.sol",
  "compiler": {
    "name": "solc",
    "version": "0.5.16+commit.9c3226ce.Emscripten.clang"
  },
  "schemaVersion": "3.4.1",
  "updatedAt": "2021-09-05T08:24:36.029Z",
  "networkType": "ethereum",
  "devdoc": {
    "methods": {}
  },
  "userdoc": {
    "methods": {}
  }
}