{
  "contractName": "SANGSU",
  "abi": [
    {
      "inputs": [
        {
          "internalType": "string[]",
          "name": "options",
          "type": "string[]"
        }
      ],
      "payable": false,
      "stateMutability": "nonpayable",
      "type": "constructor"
    },
    {
      "constant": true,
      "inputs": [
        {
          "internalType": "uint256",
          "name": "",
          "type": "uint256"
        }
      ],
      "name": "optionList",
      "outputs": [
        {
          "internalType": "string",
          "name": "",
          "type": "string"
        }
      ],
      "payable": false,
      "stateMutability": "view",
      "type": "function"
    },
    {
      "constant": true,
      "inputs": [],
      "name": "owner",
      "outputs": [
        {
          "internalType": "address",
          "name": "",
          "type": "address"
        }
      ],
      "payable": false,
      "stateMutability": "view",
      "type": "function"
    },
    {
      "constant": true,
      "inputs": [
        {
          "internalType": "address",
          "name": "",
          "type": "address"
        }
      ],
      "name": "uservotes",
      "outputs": [
        {
          "internalType": "string",
          "name": "",
          "type": "string"
        }
      ],
      "payable": false,
      "stateMutability": "view",
      "type": "function"
    },
    {
      "constant": true,
      "inputs": [],
      "name": "voteTime",
      "outputs": [
        {
          "internalType": "uint256",
          "name": "",
          "type": "uint256"
        }
      ],
      "payable": false,
      "stateMutability": "view",
      "type": "function"
    },
    {
      "constant": true,
      "inputs": [
        {
          "internalType": "address",
          "name": "",
          "type": "address"
        }
      ],
      "name": "vote_or_not",
      "outputs": [
        {
          "internalType": "uint8",
          "name": "",
          "type": "uint8"
        }
      ],
      "payable": false,
      "stateMutability": "view",
      "type": "function"
    },
    {
      "constant": true,
      "inputs": [
        {
          "internalType": "string",
          "name": "",
          "type": "string"
        }
      ],
      "name": "votes",
      "outputs": [
        {
          "internalType": "uint8",
          "name": "",
          "type": "uint8"
        }
      ],
      "payable": false,
      "stateMutability": "view",
      "type": "function"
    },
    {
      "constant": false,
      "inputs": [
        {
          "internalType": "string",
          "name": "option",
          "type": "string"
        }
      ],
      "name": "voting",
      "outputs": [],
      "payable": false,
      "stateMutability": "nonpayable",
      "type": "function"
    },
    {
      "constant": true,
      "inputs": [
        {
          "internalType": "string",
          "name": "option",
          "type": "string"
        }
      ],
      "name": "totalVotesFor",
      "outputs": [
        {
          "internalType": "uint8",
          "name": "",
          "type": "uint8"
        }
      ],
      "payable": false,
      "stateMutability": "view",
      "type": "function"
    },
    {
      "constant": false,
      "inputs": [
        {
          "components": [
            {
              "internalType": "address",
              "name": "voter",
              "type": "address"
            },
            {
              "internalType": "string",
              "name": "option",
              "type": "string"
            },
            {
              "internalType": "uint256",
              "name": "votetime",
              "type": "uint256"
            }
          ],
          "internalType": "struct SANGSU.VoterInfo",
          "name": "info",
          "type": "tuple"
        }
      ],
      "name": "pushInfo",
      "outputs": [],
      "payable": false,
      "stateMutability": "nonpayable",
      "type": "function"
    },
    {
      "constant": true,
      "inputs": [],
      "name": "getResult",
      "outputs": [
        {
          "components": [
            {
              "internalType": "address",
              "name": "voter",
              "type": "address"
            },
            {
              "internalType": "string",
              "name": "option",
              "type": "string"
            },
            {
              "internalType": "uint256",
              "name": "votetime",
              "type": "uint256"
            }
          ],
          "internalType": "struct SANGSU.VoterInfo[]",
          "name": "",
          "type": "tuple[]"
        }
      ],
      "payable": false,
      "stateMutability": "view",
      "type": "function"
    },
    {
      "constant": true,
      "inputs": [
        {
          "internalType": "string",
          "name": "option",
          "type": "string"
        }
      ],
      "name": "validOption",
      "outputs": [
        {
          "internalType": "bool",
          "name": "",
          "type": "bool"
        }
      ],
      "payable": false,
      "stateMutability": "view",
      "type": "function"
    },
    {
      "constant": true,
      "inputs": [],
      "name": "getOptionList",
      "outputs": [
        {
          "internalType": "string[]",
          "name": "options",
          "type": "string[]"
        }
      ],
      "payable": false,
      "stateMutability": "view",
      "type": "function"
    },
    {
      "constant": true,
      "inputs": [
        {
          "internalType": "address",
          "name": "user",
          "type": "address"
        }
      ],
      "name": "isVoted",
      "outputs": [
        {
          "internalType": "bool",
          "name": "",
          "type": "bool"
        }
      ],
      "payable": false,
      "stateMutability": "view",
      "type": "function"
    },
    {
      "constant": true,
      "inputs": [],
      "name": "getSomeValue",
      "outputs": [
        {
          "internalType": "uint256",
          "name": "value",
          "type": "uint256"
        }
      ],
      "payable": false,
      "stateMutability": "pure",
      "type": "function"
    },
    {
      "constant": true,
      "inputs": [],
      "name": "whoIsOwner",
      "outputs": [
        {
          "internalType": "address",
          "name": "",
          "type": "address"
        }
      ],
      "payable": false,
      "stateMutability": "view",
      "type": "function"
    },
    {
      "constant": true,
      "inputs": [],
      "name": "helloWorld",
      "outputs": [
        {
          "internalType": "string",
          "name": "",
          "type": "string"
        }
      ],
      "payable": false,
      "stateMutability": "view",
      "type": "function"
    }
  ],
  "bytecode": "0x60806040523480156200001157600080fd5b50604051620019bc380380620019bc833981810160405262000037919081019062000303565b336000806101000a81548173ffffffffffffffffffffffffffffffffffffffff021916908373ffffffffffffffffffffffffffffffffffffffff16021790555080600190805190602001906200008f92919062000097565b505062000402565b828054828255906000526020600020908101928215620000eb579160200282015b82811115620000ea578251829080519060200190620000d9929190620000fe565b5091602001919060010190620000b8565b5b509050620000fa919062000185565b5090565b828054600181600116156101000203166002900490600052602060002090601f016020900481019282601f106200014157805160ff191683800117855562000172565b8280016001018555821562000172579182015b828111156200017157825182559160200191906001019062000154565b5b509050620001819190620001b6565b5090565b620001b391905b80821115620001af5760008181620001a59190620001de565b506001016200018c565b5090565b90565b620001db91905b80821115620001d7576000816000905550600101620001bd565b5090565b90565b50805460018160011615610100020316600290046000825580601f1062000206575062000227565b601f016020900490600052602060002090810190620002269190620001b6565b5b50565b600082601f8301126200023c57600080fd5b8151620002536200024d8262000376565b62000348565b9150818183526020840193506020810190508360005b838110156200029d5781518601620002828882620002a7565b84526020840193506020830192505060018101905062000269565b5050505092915050565b600082601f830112620002b957600080fd5b8151620002d0620002ca826200039f565b62000348565b91508082526020830160208301858383011115620002ed57600080fd5b620002fa838284620003cc565b50505092915050565b6000602082840312156200031657600080fd5b600082015167ffffffffffffffff8111156200033157600080fd5b6200033f848285016200022a565b91505092915050565b6000604051905081810181811067ffffffffffffffff821117156200036c57600080fd5b8060405250919050565b600067ffffffffffffffff8211156200038e57600080fd5b602082029050602081019050919050565b600067ffffffffffffffff821115620003b757600080fd5b601f19601f8301169050602081019050919050565b60005b83811015620003ec578082015181840152602081019050620003cf565b83811115620003fc576000848401525b50505050565b6115aa80620004126000396000f3fe608060405234801561001057600080fd5b50600436106101005760003560e01c8063b99ef1fa11610097578063cbff75cb11610066578063cbff75cb146102d9578063de29278914610309578063de93395614610327578063e3393a6d1461034357610100565b8063b99ef1fa1461024f578063bcf93dd61461027f578063c198a5391461029d578063c605f76c146102bb57610100565b80636a2743c7116100d35780636a2743c7146101c55780638da5cb5b146101f55780639ee1bd0f14610213578063a40674b71461023157610100565b806327af400614610105578063445efc01146101355780634a3bf37714610165578063573489a914610195575b600080fd5b61011f600480360361011a9190810190610de5565b61035f565b60405161012c91906112c8565b60405180910390f35b61014f600480360361014a9190810190610de5565b61040f565b60405161015c9190611327565b60405180910390f35b61017f600480360361017a9190810190610e4f565b61042f565b60405161018c9190611327565b60405180910390f35b6101af60048036036101aa9190810190610ed1565b610476565b6040516101bc91906112c8565b60405180910390f35b6101df60048036036101da9190810190610e4f565b61052f565b6040516101ec91906112ad565b60405180910390f35b6101fd6105d0565b60405161020a919061124e565b60405180910390f35b61021b6105f5565b604051610228919061124e565b60405180910390f35b61023961061e565b604051610246919061130c565b60405180910390f35b61026960048036036102649190810190610e0e565b610627565b6040516102769190611327565b60405180910390f35b61028761065d565b604051610294919061130c565b60405180910390f35b6102a5610663565b6040516102b29190611269565b60405180910390f35b6102c361074c565b6040516102d091906112ea565b60405180910390f35b6102f360048036036102ee9190810190610de5565b610789565b60405161030091906112ad565b60405180910390f35b6103116107f6565b60405161031e919061128b565b60405180910390f35b610341600480360361033c9190810190610e90565b610957565b005b61035d60048036036103589190810190610e4f565b6109f9565b005b60026020528060005260406000206000915090508054600181600116156101000203166002900480601f0160208091040260200160405190810160405280929190818152602001828054600181600116156101000203166002900480156104075780601f106103dc57610100808354040283529160200191610407565b820191906000526020600020905b8154815290600101906020018083116103ea57829003601f168201915b505050505081565b60046020528060005260406000206000915054906101000a900460ff1681565b600061043a8261052f565b61044357600080fd5b6003826040516104539190611220565b908152602001604051809103902060009054906101000a900460ff169050919050565b6001818154811061048357fe5b906000526020600020016000915090508054600181600116156101000203166002900480601f0160208091040260200160405190810160405280929190818152602001828054600181600116156101000203166002900480156105275780601f106104fc57610100808354040283529160200191610527565b820191906000526020600020905b81548152906001019060200180831161050a57829003601f168201915b505050505081565b600080600090505b6001805490508110156105c557826040516020016105559190611220565b604051602081830303815290604052805190602001206001828154811061057857fe5b906000526020600020016040516020016105929190611237565b6040516020818303038152906040528051906020012014156105b85760019150506105cb565b8080600101915050610537565b50600090505b919050565b6000809054906101000a900473ffffffffffffffffffffffffffffffffffffffff1681565b60008060009054906101000a900473ffffffffffffffffffffffffffffffffffffffff16905090565b60006005905090565b6003818051602081018201805184825260208301602085012081835280955050505050506000915054906101000a900460ff1681565b60055481565b60606001805480602002602001604051908101604052809291908181526020016000905b82821015610743578382906000526020600020018054600181600116156101000203166002900480601f01602080910402602001604051908101604052809291908181526020018280546001816001161561010002031660029004801561072f5780601f106107045761010080835404028352916020019161072f565b820191906000526020600020905b81548152906001019060200180831161071257829003601f168201915b505050505081526020019060010190610687565b50505050905090565b60606040518060400160405280600c81526020017f48656c6c6f20576f726c64210000000000000000000000000000000000000000815250905090565b60006001600460008473ffffffffffffffffffffffffffffffffffffffff1673ffffffffffffffffffffffffffffffffffffffff16815260200190815260200160002060009054906101000a900460ff1660ff1614156107ec57600190506107f1565b600090505b919050565b60606006805480602002602001604051908101604052809291908181526020016000905b8282101561094e57838290600052602060002090600302016040518060600160405290816000820160009054906101000a900473ffffffffffffffffffffffffffffffffffffffff1673ffffffffffffffffffffffffffffffffffffffff1673ffffffffffffffffffffffffffffffffffffffff168152602001600182018054600181600116156101000203166002900480601f01602080910402602001604051908101604052809291908181526020018280546001816001161561010002031660029004801561092c5780601f106109015761010080835404028352916020019161092c565b820191906000526020600020905b81548152906001019060200180831161090f57829003601f168201915b505050505081526020016002820154815250508152602001906001019061081a565b50505050905090565b6006819080600181540180825580915050906001820390600052602060002090600302016000909192909190915060008201518160000160006101000a81548173ffffffffffffffffffffffffffffffffffffffff021916908373ffffffffffffffffffffffffffffffffffffffff16021790555060208201518160010190805190602001906109e8929190610b3f565b506040820151816002015550505050565b80600260003373ffffffffffffffffffffffffffffffffffffffff1673ffffffffffffffffffffffffffffffffffffffff1681526020019081526020016000209080519060200190610a4c929190610bbf565b506001600382604051610a5f9190611220565b908152602001604051809103902060008282829054906101000a900460ff160192506101000a81548160ff021916908360ff1602179055506001600460003373ffffffffffffffffffffffffffffffffffffffff1673ffffffffffffffffffffffffffffffffffffffff16815260200190815260200160002060006101000a81548160ff021916908360ff16021790555042600581905550610aff610c3f565b60405180606001604052803373ffffffffffffffffffffffffffffffffffffffff168152602001838152602001428152509050610b3b81610957565b5050565b828054600181600116156101000203166002900490600052602060002090601f016020900481019282601f10610b8057805160ff1916838001178555610bae565b82800160010185558215610bae579182015b82811115610bad578251825591602001919060010190610b92565b5b509050610bbb9190610c76565b5090565b828054600181600116156101000203166002900490600052602060002090601f016020900481019282601f10610c0057805160ff1916838001178555610c2e565b82800160010185558215610c2e579182015b82811115610c2d578251825591602001919060010190610c12565b5b509050610c3b9190610c76565b5090565b6040518060600160405280600073ffffffffffffffffffffffffffffffffffffffff16815260200160608152602001600081525090565b610c9891905b80821115610c94576000816000905550600101610c7c565b5090565b90565b600081359050610caa81611539565b92915050565b600082601f830112610cc157600080fd5b8135610cd4610ccf8261136f565b611342565b91508082526020830160208301858383011115610cf057600080fd5b610cfb8382846114e6565b50505092915050565b600082601f830112610d1557600080fd5b8135610d28610d238261139b565b611342565b91508082526020830160208301858383011115610d4457600080fd5b610d4f8382846114e6565b50505092915050565b600060608284031215610d6a57600080fd5b610d746060611342565b90506000610d8484828501610c9b565b600083015250602082013567ffffffffffffffff811115610da457600080fd5b610db084828501610cb0565b6020830152506040610dc484828501610dd0565b60408301525092915050565b600081359050610ddf81611550565b92915050565b600060208284031215610df757600080fd5b6000610e0584828501610c9b565b91505092915050565b600060208284031215610e2057600080fd5b600082013567ffffffffffffffff811115610e3a57600080fd5b610e4684828501610cb0565b91505092915050565b600060208284031215610e6157600080fd5b600082013567ffffffffffffffff811115610e7b57600080fd5b610e8784828501610d04565b91505092915050565b600060208284031215610ea257600080fd5b600082013567ffffffffffffffff811115610ebc57600080fd5b610ec884828501610d58565b91505092915050565b600060208284031215610ee357600080fd5b6000610ef184828501610dd0565b91505092915050565b6000610f0683836110a3565b905092915050565b6000610f1a83836111a3565b905092915050565b610f2b81611491565b82525050565b610f3a81611491565b82525050565b6000610f4b826113fc565b610f558185611442565b935083602082028501610f67856113c7565b8060005b85811015610fa35784840389528151610f848582610efa565b9450610f8f83611428565b925060208a01995050600181019050610f6b565b50829750879550505050505092915050565b6000610fc082611407565b610fca8185611453565b935083602082028501610fdc856113d7565b8060005b858110156110185784840389528151610ff98582610f0e565b945061100483611435565b925060208a01995050600181019050610fe0565b50829750879550505050505092915050565b611033816114a3565b82525050565b60006110448261141d565b61104e8185611475565b935061105e8185602086016114f5565b61106781611528565b840191505092915050565b600061107d8261141d565b6110878185611486565b93506110978185602086016114f5565b80840191505092915050565b60006110ae82611412565b6110b88185611464565b93506110c88185602086016114f5565b6110d181611528565b840191505092915050565b60006110e782611412565b6110f18185611475565b93506111018185602086016114f5565b61110a81611528565b840191505092915050565b60008154600181166000811461113257600181146111575761119b565b607f60028304166111438187611486565b955060ff198316865280860193505061119b565b600282046111658187611486565b9550611170856113e7565b60005b8281101561119257815481890152600182019150602081019050611173565b82880195505050505b505092915050565b60006060830160008301516111bb6000860182610f22565b50602083015184820360208601526111d382826110a3565b91505060408301516111e860408601826111f3565b508091505092915050565b6111fc816114cf565b82525050565b61120b816114cf565b82525050565b61121a816114d9565b82525050565b600061122c8284611072565b915081905092915050565b60006112438284611115565b915081905092915050565b60006020820190506112636000830184610f31565b92915050565b600060208201905081810360008301526112838184610f40565b905092915050565b600060208201905081810360008301526112a58184610fb5565b905092915050565b60006020820190506112c2600083018461102a565b92915050565b600060208201905081810360008301526112e281846110dc565b905092915050565b600060208201905081810360008301526113048184611039565b905092915050565b60006020820190506113216000830184611202565b92915050565b600060208201905061133c6000830184611211565b92915050565b6000604051905081810181811067ffffffffffffffff8211171561136557600080fd5b8060405250919050565b600067ffffffffffffffff82111561138657600080fd5b601f19601f8301169050602081019050919050565b600067ffffffffffffffff8211156113b257600080fd5b601f19601f8301169050602081019050919050565b6000819050602082019050919050565b6000819050602082019050919050565b60008190508160005260206000209050919050565b600081519050919050565b600081519050919050565b600081519050919050565b600081519050919050565b6000602082019050919050565b6000602082019050919050565b600082825260208201905092915050565b600082825260208201905092915050565b600082825260208201905092915050565b600082825260208201905092915050565b600081905092915050565b600061149c826114af565b9050919050565b60008115159050919050565b600073ffffffffffffffffffffffffffffffffffffffff82169050919050565b6000819050919050565b600060ff82169050919050565b82818337600083830152505050565b60005b838110156115135780820151818401526020810190506114f8565b83811115611522576000848401525b50505050565b6000601f19601f8301169050919050565b61154281611491565b811461154d57600080fd5b50565b611559816114cf565b811461156457600080fd5b5056fea365627a7a72315820c48d089d63683c47fb5a023ca7188864aa96e15e9f8dec35da1f572e8bbdfb746c6578706572696d656e74616cf564736f6c63430005100040",
  "source": "pragma solidity >=0.4.21 <0.7.0;\r\npragma experimental ABIEncoderV2;\r\n\r\ncontract SANGSU { \r\n\taddress public owner; // public    getter  \r\n    \r\n    string[] public optionList;\r\n    mapping (address => string) public uservotes;\r\n    mapping (string => uint8) public votes;\r\n    mapping (address => uint8) public vote_or_not; // 0 =   1 =    \r\n    uint public voteTime;\r\n\r\n    struct VoterInfo{\r\n        address voter;\r\n        string option;\r\n        uint votetime;\r\n    }\r\n\r\n    VoterInfo[] VoteResult;\r\n\r\n    constructor(string[] memory options) public { \r\n        owner = msg.sender; \r\n        optionList = options;\r\n    }\r\n    \r\n    function voting(string memory option) public {\r\n        //require(uservotes[msg.sender]=='');\r\n        uservotes[msg.sender] = option;\r\n        votes[option] += 1;\r\n        vote_or_not[msg.sender] = 1;\r\n        voteTime = now;\r\n        VoterInfo memory info = VoterInfo(msg.sender, option, now);\r\n        pushInfo(info);\r\n    }\r\n\r\n    function totalVotesFor(string memory option) view public returns (uint8) {\r\n        require(validOption(option));\r\n        return votes[option];\r\n    }\r\n\r\n    function pushInfo(VoterInfo memory info) public {\r\n        VoteResult.push(info);\r\n    }\r\n\r\n    function getResult() view public returns (VoterInfo[] memory){\r\n        return VoteResult;\r\n    }\r\n\r\n    function validOption(string memory option) view public returns (bool) {\r\n        for(uint i = 0; i < optionList.length; i++) {\r\n            /*\r\n            if (optionList[i] == option) {\r\n                return true;\r\n            }\r\n            */\r\n            // String   \r\n            if (keccak256(abi.encodePacked(optionList[i])) == keccak256(abi.encodePacked(option))) {\r\n                return true;\r\n            }\r\n        }\r\n        return false;\r\n    }\r\n\r\n    function getOptionList() public view returns(string[] memory options) {\r\n        return optionList;\r\n    }\r\n    \r\n    //   \r\n    function isVoted(address user) public view returns (bool) {\r\n        if(vote_or_not[user] == 1){\r\n            return true;\r\n        } else {\r\n            return false;\r\n        }\r\n    }\r\n\r\n    //    \r\n    function getSomeValue() public pure returns (uint256 value){ \r\n    \treturn 5; \r\n    } \r\n\r\n    function whoIsOwner() public view returns (address){\r\n        return owner;\r\n    }\r\n\r\n    function helloWorld() public view returns (string memory){\r\n        return \"Hello World!\";\r\n    }\r\n}",
  "sourcePath": "C:/dev/vue2_test/back/contracts/SANGSU.sol",
  "compiler": {
    "name": "solc",
    "version": "0.5.16+commit.9c3226ce.Emscripten.clang"
  },
  "schemaVersion": "3.4.1",
  "updatedAt": "2021-09-11T08:21:34.136Z",
  "networkType": "ethereum",
  "devdoc": {
    "methods": {}
  },
  "userdoc": {
    "methods": {}
  }
}