{
  "contractName": "Vote",
  "abi": [
    {
      "constant": true,
      "inputs": [
        {
          "name": "",
          "type": "address"
        }
      ],
      "name": "uservotes",
      "outputs": [
        {
          "name": "",
          "type": "bytes32"
        }
      ],
      "payable": false,
      "stateMutability": "view",
      "type": "function"
    },
    {
      "constant": true,
      "inputs": [
        {
          "name": "",
          "type": "bytes32"
        }
      ],
      "name": "votes",
      "outputs": [
        {
          "name": "",
          "type": "uint8"
        }
      ],
      "payable": false,
      "stateMutability": "view",
      "type": "function"
    },
    {
      "constant": true,
      "inputs": [
        {
          "name": "",
          "type": "uint256"
        }
      ],
      "name": "optionList",
      "outputs": [
        {
          "name": "",
          "type": "bytes32"
        }
      ],
      "payable": false,
      "stateMutability": "view",
      "type": "function"
    },
    {
      "inputs": [
        {
          "name": "options",
          "type": "bytes32[]"
        }
      ],
      "payable": false,
      "stateMutability": "nonpayable",
      "type": "constructor"
    },
    {
      "anonymous": false,
      "inputs": [
        {
          "indexed": false,
          "name": "option",
          "type": "bytes32"
        },
        {
          "indexed": false,
          "name": "count",
          "type": "uint8"
        }
      ],
      "name": "VoteCompleted",
      "type": "event"
    },
    {
      "constant": false,
      "inputs": [
        {
          "name": "option",
          "type": "bytes32"
        }
      ],
      "name": "voting",
      "outputs": [],
      "payable": false,
      "stateMutability": "nonpayable",
      "type": "function"
    },
    {
      "constant": true,
      "inputs": [
        {
          "name": "option",
          "type": "bytes32"
        }
      ],
      "name": "totalVotesFor",
      "outputs": [
        {
          "name": "",
          "type": "uint8"
        }
      ],
      "payable": false,
      "stateMutability": "view",
      "type": "function"
    },
    {
      "constant": true,
      "inputs": [
        {
          "name": "option",
          "type": "bytes32"
        }
      ],
      "name": "validOption",
      "outputs": [
        {
          "name": "",
          "type": "bool"
        }
      ],
      "payable": false,
      "stateMutability": "view",
      "type": "function"
    },
    {
      "constant": true,
      "inputs": [],
      "name": "getOptionList",
      "outputs": [
        {
          "name": "options",
          "type": "bytes32[]"
        }
      ],
      "payable": false,
      "stateMutability": "view",
      "type": "function"
    }
  ],
  "bytecode": "0x608060405234801561001057600080fd5b50604051610664380380610664833981018060405281019080805182019291905050508060009080519060200190610049929190610050565b50506100c8565b828054828255906000526020600020908101928215610092579160200282015b82811115610091578251829060001916905591602001919060010190610070565b5b50905061009f91906100a3565b5090565b6100c591905b808211156100c15760008160009055506001016100a9565b5090565b90565b61058d806100d76000396000f300608060405260043610610083576000357c0100000000000000000000000000000000000000000000000000000000900463ffffffff1680630553848c1461008857806327af4006146100d15780632b38cd96146101305780632f265cf71461017b578063573489a9146101c6578063c198a5391461020f578063e0e7365c1461027b575b600080fd5b34801561009457600080fd5b506100b760048036038101908080356000191690602001909291905050506102ac565b604051808215151515815260200191505060405180910390f35b3480156100dd57600080fd5b50610112600480360381019080803573ffffffffffffffffffffffffffffffffffffffff16906020019092919050505061030b565b60405180826000191660001916815260200191505060405180910390f35b34801561013c57600080fd5b5061015f6004803603810190808035600019169060200190929190505050610323565b604051808260ff1660ff16815260200191505060405180910390f35b34801561018757600080fd5b506101aa6004803603810190808035600019169060200190929190505050610343565b604051808260ff1660ff16815260200191505060405180910390f35b3480156101d257600080fd5b506101f160048036038101908080359060200190929190505050610389565b60405180826000191660001916815260200191505060405180910390f35b34801561021b57600080fd5b506102246103ac565b6040518080602001828103825283818151815260200191508051906020019060200280838360005b8381101561026757808201518184015260208101905061024c565b505050509050019250505060405180910390f35b34801561028757600080fd5b506102aa6004803603810190808035600019169060200190929190505050610408565b005b600080600090505b6000805490508110156103005782600019166000828154811015156102d557fe5b90600052602060002001546000191614156102f35760019150610305565b80806001019150506102b4565b600091505b50919050565b60016020528060005260406000206000915090505481565b60026020528060005260406000206000915054906101000a900460ff1681565b600061034e826102ac565b151561035957600080fd5b60026000836000191660001916815260200190815260200160002060009054906101000a900460ff169050919050565b60008181548110151561039857fe5b906000526020600020016000915090505481565b606060008054806020026020016040519081016040528092919081815260200182805480156103fe57602002820191906000526020600020905b815460001916815260200190600101908083116103e6575b5050505050905090565b6000600160003373ffffffffffffffffffffffffffffffffffffffff1673ffffffffffffffffffffffffffffffffffffffff168152602001908152602001600020546000191614151561045a57600080fd5b80600160003373ffffffffffffffffffffffffffffffffffffffff1673ffffffffffffffffffffffffffffffffffffffff1681526020019081526020016000208160001916905550600160026000836000191660001916815260200190815260200160002060008282829054906101000a900460ff160192506101000a81548160ff021916908360ff1602179055507f7268f647205ccb227bfe2fe27c03f2a0316060f923d964fc9c704f4884ae8b5a8160026000846000191660001916815260200190815260200160002060009054906101000a900460ff166040518083600019166000191681526020018260ff1660ff1681526020019250505060405180910390a1505600a165627a7a72305820366bde27f41168fd72be3203d5369d04d71b1f147acae49ba89f2c3ba1b4b5500029",
  "source": "pragma solidity >=0.4.21 <0.6.0;\n\ncontract Vote {\n  bytes32[] public optionList;\n  mapping (address => bytes32) public uservotes;\n  mapping (bytes32 => uint8) public votes;\n\n\n  constructor(bytes32[] options) public {\n    optionList = options;\n  }\n\n  function voting(bytes32 option) public {\n    require(uservotes[msg.sender]=='');\n    uservotes[msg.sender] = option;\n    votes[option] += 1;\n\n    emit VoteCompleted(option, votes[option]);\n  }\n\n  function totalVotesFor(bytes32 option) view public returns (uint8) {\n    require(validOption(option));\n    return votes[option];\n  }\n\n  function validOption(bytes32 option) view public returns (bool) {\n    for(uint i = 0; i < optionList.length; i++) {\n      if (optionList[i] == option) {\n        return true;\n      }\n    }\n    return false;\n  }\n\n  function getOptionList() public view returns(bytes32[] options) {\n  \treturn optionList;\n  }\n\n\n  event VoteCompleted(bytes32 option, uint8 count);\n}\n",
  "sourcePath": "C:/dev/vue2_test/back/contracts/Vote.sol",
  "compiler": {
    "name": "solc",
    "version": "0.4.25+commit.59dbf8f1.Emscripten.clang"
  },
  "schemaVersion": "3.4.1",
  "updatedAt": "2021-08-16T05:41:33.432Z",
  "networkType": "ethereum",
  "devdoc": {
    "methods": {}
  },
  "userdoc": {
    "methods": {}
  }
}